{
  "contractName": "TokenGeyser",
  "abi": [
    {
      "inputs": [
        {
          "internalType": "contract IERC20",
          "name": "stakingToken",
          "type": "address"
        },
        {
          "internalType": "contract IERC20",
          "name": "distributionToken",
          "type": "address"
        },
        {
          "internalType": "uint256",
          "name": "maxUnlockSchedules",
          "type": "uint256"
        },
        {
          "internalType": "uint256",
          "name": "startBonus_",
          "type": "uint256"
        },
        {
          "internalType": "uint256",
          "name": "bonusPeriodSec_",
          "type": "uint256"
        },
        {
          "internalType": "uint256",
          "name": "initialSharesPerToken",
          "type": "uint256"
        }
      ],
      "stateMutability": "nonpayable",
      "type": "constructor"
    },
    {
      "anonymous": false,
      "inputs": [
        {
          "indexed": true,
          "internalType": "address",
          "name": "previousOwner",
          "type": "address"
        },
        {
          "indexed": true,
          "internalType": "address",
          "name": "newOwner",
          "type": "address"
        }
      ],
      "name": "OwnershipTransferred",
      "type": "event"
    },
    {
      "anonymous": false,
      "inputs": [
        {
          "indexed": true,
          "internalType": "address",
          "name": "user",
          "type": "address"
        },
        {
          "indexed": false,
          "internalType": "uint256",
          "name": "amount",
          "type": "uint256"
        },
        {
          "indexed": false,
          "internalType": "uint256",
          "name": "total",
          "type": "uint256"
        },
        {
          "indexed": false,
          "internalType": "bytes",
          "name": "data",
          "type": "bytes"
        }
      ],
      "name": "Staked",
      "type": "event"
    },
    {
      "anonymous": false,
      "inputs": [
        {
          "indexed": true,
          "internalType": "address",
          "name": "user",
          "type": "address"
        },
        {
          "indexed": false,
          "internalType": "uint256",
          "name": "amount",
          "type": "uint256"
        }
      ],
      "name": "TokensClaimed",
      "type": "event"
    },
    {
      "anonymous": false,
      "inputs": [
        {
          "indexed": false,
          "internalType": "uint256",
          "name": "amount",
          "type": "uint256"
        },
        {
          "indexed": false,
          "internalType": "uint256",
          "name": "durationSec",
          "type": "uint256"
        },
        {
          "indexed": false,
          "internalType": "uint256",
          "name": "total",
          "type": "uint256"
        }
      ],
      "name": "TokensLocked",
      "type": "event"
    },
    {
      "anonymous": false,
      "inputs": [
        {
          "indexed": false,
          "internalType": "uint256",
          "name": "amount",
          "type": "uint256"
        },
        {
          "indexed": false,
          "internalType": "uint256",
          "name": "total",
          "type": "uint256"
        }
      ],
      "name": "TokensUnlocked",
      "type": "event"
    },
    {
      "anonymous": false,
      "inputs": [
        {
          "indexed": true,
          "internalType": "address",
          "name": "user",
          "type": "address"
        },
        {
          "indexed": false,
          "internalType": "uint256",
          "name": "amount",
          "type": "uint256"
        },
        {
          "indexed": false,
          "internalType": "uint256",
          "name": "total",
          "type": "uint256"
        },
        {
          "indexed": false,
          "internalType": "bytes",
          "name": "data",
          "type": "bytes"
        }
      ],
      "name": "Unstaked",
      "type": "event"
    },
    {
      "inputs": [],
      "name": "BONUS_DECIMALS",
      "outputs": [
        {
          "internalType": "uint256",
          "name": "",
          "type": "uint256"
        }
      ],
      "stateMutability": "view",
      "type": "function"
    },
    {
      "inputs": [],
      "name": "bonusPeriodSec",
      "outputs": [
        {
          "internalType": "uint256",
          "name": "",
          "type": "uint256"
        }
      ],
      "stateMutability": "view",
      "type": "function"
    },
    {
      "inputs": [],
      "name": "owner",
      "outputs": [
        {
          "internalType": "address",
          "name": "",
          "type": "address"
        }
      ],
      "stateMutability": "view",
      "type": "function"
    },
    {
      "inputs": [],
      "name": "renounceOwnership",
      "outputs": [],
      "stateMutability": "nonpayable",
      "type": "function"
    },
    {
      "inputs": [],
      "name": "startBonus",
      "outputs": [
        {
          "internalType": "uint256",
          "name": "",
          "type": "uint256"
        }
      ],
      "stateMutability": "view",
      "type": "function"
    },
    {
      "inputs": [],
      "name": "totalLockedShares",
      "outputs": [
        {
          "internalType": "uint256",
          "name": "",
          "type": "uint256"
        }
      ],
      "stateMutability": "view",
      "type": "function"
    },
    {
      "inputs": [],
      "name": "totalStakingShares",
      "outputs": [
        {
          "internalType": "uint256",
          "name": "",
          "type": "uint256"
        }
      ],
      "stateMutability": "view",
      "type": "function"
    },
    {
      "inputs": [
        {
          "internalType": "address",
          "name": "newOwner",
          "type": "address"
        }
      ],
      "name": "transferOwnership",
      "outputs": [],
      "stateMutability": "nonpayable",
      "type": "function"
    },
    {
      "inputs": [
        {
          "internalType": "uint256",
          "name": "",
          "type": "uint256"
        }
      ],
      "name": "unlockSchedules",
      "outputs": [
        {
          "internalType": "uint256",
          "name": "initialLockedShares",
          "type": "uint256"
        },
        {
          "internalType": "uint256",
          "name": "unlockedShares",
          "type": "uint256"
        },
        {
          "internalType": "uint256",
          "name": "lastUnlockTimestampSec",
          "type": "uint256"
        },
        {
          "internalType": "uint256",
          "name": "endAtSec",
          "type": "uint256"
        },
        {
          "internalType": "uint256",
          "name": "durationSec",
          "type": "uint256"
        }
      ],
      "stateMutability": "view",
      "type": "function"
    },
    {
      "inputs": [],
      "name": "getStakingToken",
      "outputs": [
        {
          "internalType": "contract IERC20",
          "name": "",
          "type": "address"
        }
      ],
      "stateMutability": "view",
      "type": "function"
    },
    {
      "inputs": [],
      "name": "getDistributionToken",
      "outputs": [
        {
          "internalType": "contract IERC20",
          "name": "",
          "type": "address"
        }
      ],
      "stateMutability": "view",
      "type": "function"
    },
    {
      "inputs": [
        {
          "internalType": "uint256",
          "name": "amount",
          "type": "uint256"
        }
      ],
      "name": "stake",
      "outputs": [],
      "stateMutability": "nonpayable",
      "type": "function"
    },
    {
      "inputs": [
        {
          "internalType": "address",
          "name": "user",
          "type": "address"
        },
        {
          "internalType": "uint256",
          "name": "amount",
          "type": "uint256"
        }
      ],
      "name": "stakeFor",
      "outputs": [],
      "stateMutability": "nonpayable",
      "type": "function"
    },
    {
      "inputs": [
        {
          "internalType": "uint256",
          "name": "amount",
          "type": "uint256"
        }
      ],
      "name": "unstake",
      "outputs": [],
      "stateMutability": "nonpayable",
      "type": "function"
    },
    {
      "inputs": [
        {
          "internalType": "uint256",
          "name": "amount",
          "type": "uint256"
        }
      ],
      "name": "unstakeQuery",
      "outputs": [
        {
          "internalType": "uint256",
          "name": "",
          "type": "uint256"
        }
      ],
      "stateMutability": "nonpayable",
      "type": "function"
    },
    {
      "inputs": [
        {
          "internalType": "address",
          "name": "addr",
          "type": "address"
        }
      ],
      "name": "totalStakedFor",
      "outputs": [
        {
          "internalType": "uint256",
          "name": "",
          "type": "uint256"
        }
      ],
      "stateMutability": "view",
      "type": "function"
    },
    {
      "inputs": [],
      "name": "totalStaked",
      "outputs": [
        {
          "internalType": "uint256",
          "name": "",
          "type": "uint256"
        }
      ],
      "stateMutability": "view",
      "type": "function"
    },
    {
      "inputs": [],
      "name": "token",
      "outputs": [
        {
          "internalType": "address",
          "name": "",
          "type": "address"
        }
      ],
      "stateMutability": "view",
      "type": "function"
    },
    {
      "inputs": [],
      "name": "updateAccounting",
      "outputs": [
        {
          "internalType": "uint256",
          "name": "",
          "type": "uint256"
        },
        {
          "internalType": "uint256",
          "name": "",
          "type": "uint256"
        },
        {
          "internalType": "uint256",
          "name": "",
          "type": "uint256"
        },
        {
          "internalType": "uint256",
          "name": "",
          "type": "uint256"
        },
        {
          "internalType": "uint256",
          "name": "",
          "type": "uint256"
        },
        {
          "internalType": "uint256",
          "name": "",
          "type": "uint256"
        }
      ],
      "stateMutability": "nonpayable",
      "type": "function"
    },
    {
      "inputs": [],
      "name": "totalLocked",
      "outputs": [
        {
          "internalType": "uint256",
          "name": "",
          "type": "uint256"
        }
      ],
      "stateMutability": "view",
      "type": "function"
    },
    {
      "inputs": [],
      "name": "totalUnlocked",
      "outputs": [
        {
          "internalType": "uint256",
          "name": "",
          "type": "uint256"
        }
      ],
      "stateMutability": "view",
      "type": "function"
    },
    {
      "inputs": [],
      "name": "unlockScheduleCount",
      "outputs": [
        {
          "internalType": "uint256",
          "name": "",
          "type": "uint256"
        }
      ],
      "stateMutability": "view",
      "type": "function"
    },
    {
      "inputs": [
        {
          "internalType": "uint256",
          "name": "amount",
          "type": "uint256"
        },
        {
          "internalType": "uint256",
          "name": "durationSec",
          "type": "uint256"
        }
      ],
      "name": "lockTokens",
      "outputs": [],
      "stateMutability": "nonpayable",
      "type": "function"
    },
    {
      "inputs": [],
      "name": "unlockTokens",
      "outputs": [
        {
          "internalType": "uint256",
          "name": "",
          "type": "uint256"
        }
      ],
      "stateMutability": "nonpayable",
      "type": "function"
    }
  ],
  "bytecode": "0x608060405260006004556000600555600060065560006007556000600855426009556000600a556000600b553480156200003857600080fd5b50604051620047313803806200473183398181016040526200005e9190810190620003bc565b6000620000706200037860201b60201c565b9050806000806101000a81548173ffffffffffffffffffffffffffffffffffffffff021916908373ffffffffffffffffffffffffffffffffffffffff1602179055508073ffffffffffffffffffffffffffffffffffffffff16600073ffffffffffffffffffffffffffffffffffffffff167f8be0079c531659141344cd1fd0a4f28419497f9722a3daafe3b4186f6b6457e060405160405180910390a3506002600a0a83111562000158576040517f08c379a00000000000000000000000000000000000000000000000000000000081526004016200014f90620005b8565b60405180910390fd5b60008214156200019f576040517f08c379a00000000000000000000000000000000000000000000000000000000081526004016200019690620005fc565b60405180910390fd5b60008111620001e5576040517f08c379a0000000000000000000000000000000000000000000000000000000008152600401620001dc90620005da565b60405180910390fd5b85604051620001f49062000380565b6200020091906200059b565b604051809103906000f0801580156200021d573d6000803e3d6000fd5b50600160006101000a81548173ffffffffffffffffffffffffffffffffffffffff021916908373ffffffffffffffffffffffffffffffffffffffff160217905550846040516200026d9062000380565b6200027991906200059b565b604051809103906000f08015801562000296573d6000803e3d6000fd5b50600260006101000a81548173ffffffffffffffffffffffffffffffffffffffff021916908373ffffffffffffffffffffffffffffffffffffffff16021790555084604051620002e69062000380565b620002f291906200059b565b604051809103906000f0801580156200030f573d6000803e3d6000fd5b50600360006101000a81548173ffffffffffffffffffffffffffffffffffffffff021916908373ffffffffffffffffffffffffffffffffffffffff160217905550826004819055508160058190555083600a8190555080600b81905550505050505050620006dd565b600033905090565b610c198062003b1883390190565b6000815190506200039f81620006a9565b92915050565b600081519050620003b681620006c3565b92915050565b60008060008060008060c08789031215620003d657600080fd5b6000620003e689828a016200038e565b9650506020620003f989828a016200038e565b95505060406200040c89828a01620003a5565b94505060606200041f89828a01620003a5565b93505060806200043289828a01620003a5565b92505060a06200044589828a01620003a5565b9150509295509295509295565b6200045d8162000681565b82525050565b6000620004726021836200061e565b91507f546f6b656e4765797365723a20737461727420626f6e757320746f6f2068696760008301527f68000000000000000000000000000000000000000000000000000000000000006020830152604082019050919050565b6000620004da602a836200061e565b91507f546f6b656e4765797365723a20696e697469616c536861726573506572546f6b60008301527f656e206973207a65726f000000000000000000000000000000000000000000006020830152604082019050919050565b6000620005426021836200061e565b91507f546f6b656e4765797365723a20626f6e757320706572696f64206973207a657260008301527f6f000000000000000000000000000000000000000000000000000000000000006020830152604082019050919050565b6000602082019050620005b2600083018462000452565b92915050565b60006020820190508181036000830152620005d38162000463565b9050919050565b60006020820190508181036000830152620005f581620004cb565b9050919050565b60006020820190508181036000830152620006178162000533565b9050919050565b600082825260208201905092915050565b60006200063c8262000657565b9050919050565b600062000650826200062f565b9050919050565b600073ffffffffffffffffffffffffffffffffffffffff82169050919050565b6000819050919050565b60006200068e8262000695565b9050919050565b6000620006a28262000657565b9050919050565b620006b48162000643565b8114620006c057600080fd5b50565b620006ce8162000677565b8114620006da57600080fd5b50565b61342b80620006ed6000396000f3fe608060405234801561001057600080fd5b50600436106101585760003560e01c8063817b1cd2116100c3578063a694fc3a1161007c578063a694fc3a1461039e578063a779d080146103ba578063c7ae2007146103d8578063f2fde38b146103f6578063f968f49314610412578063fc0c546a1461043057610158565b8063817b1cd2146102da57806381c39bec146102f857806386805dd11461031657806389158d8e146103465780638da5cb5b146103625780639f9106d11461038057610158565b80634b341aed116101155780634b341aed1461021257806356891412146102425780635c94bcb21461026057806370c6a17e14610294578063715018a6146102b25780637c6aa6f4146102bc57610158565b80631dc27fde1461015d57806322c12b841461017b5780632e17de78146101995780632ee40908146101b557806338b45fde146101d1578063494347e7146101ef575b600080fd5b61016561044e565b6040516101729190613109565b60405180910390f35b610183610453565b6040516101909190612e8c565b60405180910390f35b6101b360048036036101ae9190810190612568565b61066d565b005b6101cf60048036036101ca91908101906124da565b61067a565b005b6101d9610689565b6040516101e69190613109565b60405180910390f35b6101f761068f565b60405161020996959493929190613213565b60405180910390f35b61022c600480360361022791908101906124b1565b610805565b6040516102399190613109565b60405180910390f35b61024a61088f565b6040516102579190613109565b60405180910390f35b61027a60048036036102759190810190612568565b610936565b60405161028b9594939291906131c0565b60405180910390f35b61029c610979565b6040516102a99190613109565b60405180910390f35b6102ba61097f565b005b6102c4610ad4565b6040516102d19190613109565b60405180910390f35b6102e2610ada565b6040516102ef9190613109565b60405180910390f35b610300610b81565b60405161030d9190613109565b60405180910390f35b610330600480360361032b9190810190612568565b610b87565b60405161033d9190613109565b60405180910390f35b610360600480360361035b91908101906125ba565b610b99565b005b61036a610f74565b6040516103779190612db1565b60405180910390f35b610388610f9d565b6040516103959190612e8c565b60405180910390f35b6103b860048036036103b39190810190612568565b611044565b005b6103c2611052565b6040516103cf9190613109565b60405180910390f35b6103e06110f9565b6040516103ed9190613109565b60405180910390f35b610410600480360361040b91908101906124b1565b611106565b005b61041a6112ca565b6040516104279190613109565b60405180910390f35b6104386114db565b6040516104459190612db1565b60405180910390f35b600281565b6000600360009054906101000a900473ffffffffffffffffffffffffffffffffffffffff1673ffffffffffffffffffffffffffffffffffffffff1663fc0c546a6040518163ffffffff1660e01b815260040160206040518083038186803b1580156104bd57600080fd5b505afa1580156104d1573d6000803e3d6000fd5b505050506040513d601f19601f820116820180604052506104f5919081019061253f565b73ffffffffffffffffffffffffffffffffffffffff16600260009054906101000a900473ffffffffffffffffffffffffffffffffffffffff1673ffffffffffffffffffffffffffffffffffffffff1663fc0c546a6040518163ffffffff1660e01b815260040160206040518083038186803b15801561057357600080fd5b505afa158015610587573d6000803e3d6000fd5b505050506040513d601f19601f820116820180604052506105ab919081019061253f565b73ffffffffffffffffffffffffffffffffffffffff16146105c857fe5b600260009054906101000a900473ffffffffffffffffffffffffffffffffffffffff1673ffffffffffffffffffffffffffffffffffffffff1663fc0c546a6040518163ffffffff1660e01b815260040160206040518083038186803b15801561063057600080fd5b505afa158015610644573d6000803e3d6000fd5b505050506040513d601f19601f82011682018060405250610668919081019061253f565b905090565b610676816114ea565b5050565b610685338383611b36565b5050565b60045481565b6000806000806000806106a06112ca565b5060006106cc6007546106be60095442611ffa90919063ffffffff16565b61204490919063ffffffff16565b90506106e3816008546120b490919063ffffffff16565b600881905550426009819055506000600c60003373ffffffffffffffffffffffffffffffffffffffff1673ffffffffffffffffffffffffffffffffffffffff168152602001908152602001600020905060006107628260000154610754846002015442611ffa90919063ffffffff16565b61204490919063ffffffff16565b905061077b8183600101546120b490919063ffffffff16565b82600101819055504282600201819055506000806008541161079e5760006107d1565b6107d06008546107c285600101546107b4611052565b61204490919063ffffffff16565b61210990919063ffffffff16565b5b90506107db61088f565b6107e3611052565b8460010154600854844299509950995099509950995050505050909192939495565b60008060075411610817576000610888565b610887600754610879600c60008673ffffffffffffffffffffffffffffffffffffffff1673ffffffffffffffffffffffffffffffffffffffff1681526020019081526020016000206000015461086b610ada565b61204490919063ffffffff16565b61210990919063ffffffff16565b5b9050919050565b6000600360009054906101000a900473ffffffffffffffffffffffffffffffffffffffff1673ffffffffffffffffffffffffffffffffffffffff1663b69ef8a86040518163ffffffff1660e01b815260040160206040518083038186803b1580156108f957600080fd5b505afa15801561090d573d6000803e3d6000fd5b505050506040513d601f19601f820116820180604052506109319190810190612591565b905090565b600e818154811061094357fe5b90600052602060002090600502016000915090508060000154908060010154908060020154908060030154908060040154905085565b60075481565b610987612153565b73ffffffffffffffffffffffffffffffffffffffff166000809054906101000a900473ffffffffffffffffffffffffffffffffffffffff1673ffffffffffffffffffffffffffffffffffffffff1614610a15576040517f08c379a0000000000000000000000000000000000000000000000000000000008152600401610a0c90613089565b60405180910390fd5b600073ffffffffffffffffffffffffffffffffffffffff166000809054906101000a900473ffffffffffffffffffffffffffffffffffffffff1673ffffffffffffffffffffffffffffffffffffffff167f8be0079c531659141344cd1fd0a4f28419497f9722a3daafe3b4186f6b6457e060405160405180910390a360008060006101000a81548173ffffffffffffffffffffffffffffffffffffffff021916908373ffffffffffffffffffffffffffffffffffffffff160217905550565b60055481565b6000600160009054906101000a900473ffffffffffffffffffffffffffffffffffffffff1673ffffffffffffffffffffffffffffffffffffffff1663b69ef8a86040518163ffffffff1660e01b815260040160206040518083038186803b158015610b4457600080fd5b505afa158015610b58573d6000803e3d6000fd5b505050506040513d601f19601f82011682018060405250610b7c9190810190612591565b905090565b60065481565b6000610b92826114ea565b9050919050565b610ba1612153565b73ffffffffffffffffffffffffffffffffffffffff166000809054906101000a900473ffffffffffffffffffffffffffffffffffffffff1673ffffffffffffffffffffffffffffffffffffffff1614610c2f576040517f08c379a0000000000000000000000000000000000000000000000000000000008152600401610c2690613089565b60405180910390fd5b600a54600e8054905010610c78576040517f08c379a0000000000000000000000000000000000000000000000000000000008152600401610c6f906130c9565b60405180910390fd5b610c8061068f565b5050505050506000610c9061088f565b90506000808211610cb557610cb0600b548561204490919063ffffffff16565b610cdd565b610cdc82610cce8660065461204490919063ffffffff16565b61210990919063ffffffff16565b5b9050610ce76123ff565b8181600001818152505042816040018181525050610d0e84426120b490919063ffffffff16565b81606001818152505083816080018181525050600e81908060018154018082558091505060019003906000526020600020906005020160009091909190915060008201518160000155602082015181600101556040820151816002015560608201518160030155608082015181600401555050610d96826006546120b490919063ffffffff16565b600681905550600360009054906101000a900473ffffffffffffffffffffffffffffffffffffffff1673ffffffffffffffffffffffffffffffffffffffff1663fc0c546a6040518163ffffffff1660e01b815260040160206040518083038186803b158015610e0457600080fd5b505afa158015610e18573d6000803e3d6000fd5b505050506040513d601f19601f82011682018060405250610e3c919081019061253f565b73ffffffffffffffffffffffffffffffffffffffff166323b872dd33600360009054906101000a900473ffffffffffffffffffffffffffffffffffffffff16886040518463ffffffff1660e01b8152600401610e9a93929190612dcc565b602060405180830381600087803b158015610eb457600080fd5b505af1158015610ec8573d6000803e3d6000fd5b505050506040513d601f19601f82011682018060405250610eec9190810190612516565b610f2b576040517f08c379a0000000000000000000000000000000000000000000000000000000008152600401610f2290612ec9565b60405180910390fd5b7ff346961af4c52f314df1b45964746280fe409abb959d4a2458d58f79408b1fe88585610f5661088f565b604051610f6593929190613189565b60405180910390a15050505050565b60008060009054906101000a900473ffffffffffffffffffffffffffffffffffffffff16905090565b6000600160009054906101000a900473ffffffffffffffffffffffffffffffffffffffff1673ffffffffffffffffffffffffffffffffffffffff1663fc0c546a6040518163ffffffff1660e01b815260040160206040518083038186803b15801561100757600080fd5b505afa15801561101b573d6000803e3d6000fd5b505050506040513d601f19601f8201168201806040525061103f919081019061253f565b905090565b61104f333383611b36565b50565b6000600260009054906101000a900473ffffffffffffffffffffffffffffffffffffffff1673ffffffffffffffffffffffffffffffffffffffff1663b69ef8a86040518163ffffffff1660e01b815260040160206040518083038186803b1580156110bc57600080fd5b505afa1580156110d0573d6000803e3d6000fd5b505050506040513d601f19601f820116820180604052506110f49190810190612591565b905090565b6000600e80549050905090565b61110e612153565b73ffffffffffffffffffffffffffffffffffffffff166000809054906101000a900473ffffffffffffffffffffffffffffffffffffffff1673ffffffffffffffffffffffffffffffffffffffff161461119c576040517f08c379a000000000000000000000000000000000000000000000000000000000815260040161119390613089565b60405180910390fd5b600073ffffffffffffffffffffffffffffffffffffffff168173ffffffffffffffffffffffffffffffffffffffff16141561120c576040517f08c379a000000000000000000000000000000000000000000000000000000000815260040161120390612f29565b60405180910390fd5b8073ffffffffffffffffffffffffffffffffffffffff166000809054906101000a900473ffffffffffffffffffffffffffffffffffffffff1673ffffffffffffffffffffffffffffffffffffffff167f8be0079c531659141344cd1fd0a4f28419497f9722a3daafe3b4186f6b6457e060405160405180910390a3806000806101000a81548173ffffffffffffffffffffffffffffffffffffffff021916908373ffffffffffffffffffffffffffffffffffffffff16021790555050565b6000806000905060006112db61088f565b9050600060065414156112f057809150611379565b600080905060008090505b600e80549050811015611332576113236113148261215b565b836120b490919063ffffffff16565b915080806001019150506112fb565b5061135a60065461134c848461204490919063ffffffff16565b61210990919063ffffffff16565b925061137181600654611ffa90919063ffffffff16565b600681905550505b60008211156114d357600360009054906101000a900473ffffffffffffffffffffffffffffffffffffffff1673ffffffffffffffffffffffffffffffffffffffff1663a9059cbb600260009054906101000a900473ffffffffffffffffffffffffffffffffffffffff16846040518363ffffffff1660e01b8152600401611401929190612e63565b602060405180830381600087803b15801561141b57600080fd5b505af115801561142f573d6000803e3d6000fd5b505050506040513d601f19601f820116820180604052506114539190810190612516565b611492576040517f08c379a000000000000000000000000000000000000000000000000000000000815260040161148990612fe9565b60405180910390fd5b7f2e444eb379b177e88ce0649c6110a3b01099f03e297127919dd5e3b63a761a9c826114bc61088f565b6040516114ca929190613124565b60405180910390a15b819250505090565b60006114e5610f9d565b905090565b60006114f461068f565b5050505050506000821161153d576040517f08c379a000000000000000000000000000000000000000000000000000000000815260040161153490612fc9565b60405180910390fd5b8161154733610805565b1015611588576040517f08c379a000000000000000000000000000000000000000000000000000000000815260040161157f90612f89565b60405180910390fd5b60006115b8611595610ada565b6115aa8560075461204490919063ffffffff16565b61210990919063ffffffff16565b9050600081116115fd576040517f08c379a00000000000000000000000000000000000000000000000000000000081526004016115f490612ee9565b60405180910390fd5b6000600c60003373ffffffffffffffffffffffffffffffffffffffff1673ffffffffffffffffffffffffffffffffffffffff16815260200190815260200160002090506000600d60003373ffffffffffffffffffffffffffffffffffffffff1673ffffffffffffffffffffffffffffffffffffffff16815260200190815260200160002090506000809050600084905060008090505b60008211156117db576000846001868054905003815481106116b157fe5b9060005260206000209060020201905060006116da826001015442611ffa90919063ffffffff16565b90506000809050848360000154116117785761170382846000015461204490919063ffffffff16565b905061171084828461224c565b935061172581876120b490919063ffffffff16565b955061173e836000015486611ffa90919063ffffffff16565b94508680548061174a57fe5b60019003818190600052602060002090600202016000808201600090556001820160009055505090556117d3565b61178b828661204490919063ffffffff16565b905061179884828461224c565b93506117ad81876120b490919063ffffffff16565b95506117c6858460000154611ffa90919063ffffffff16565b8360000181905550600094505b505050611693565b6117f2838660010154611ffa90919063ffffffff16565b8560010181905550611811868660000154611ffa90919063ffffffff16565b856000018190555061182e83600854611ffa90919063ffffffff16565b60088190555061184986600754611ffa90919063ffffffff16565b600781905550600160009054906101000a900473ffffffffffffffffffffffffffffffffffffffff1673ffffffffffffffffffffffffffffffffffffffff1663a9059cbb338a6040518363ffffffff1660e01b81526004016118ac929190612e03565b602060405180830381600087803b1580156118c657600080fd5b505af11580156118da573d6000803e3d6000fd5b505050506040513d601f19601f820116820180604052506118fe9190810190612516565b61193d576040517f08c379a0000000000000000000000000000000000000000000000000000000008152600401611934906130e9565b60405180910390fd5b600260009054906101000a900473ffffffffffffffffffffffffffffffffffffffff1673ffffffffffffffffffffffffffffffffffffffff1663a9059cbb33836040518363ffffffff1660e01b815260040161199a929190612e03565b602060405180830381600087803b1580156119b457600080fd5b505af11580156119c8573d6000803e3d6000fd5b505050506040513d601f19601f820116820180604052506119ec9190810190612516565b611a2b576040517f08c379a0000000000000000000000000000000000000000000000000000000008152600401611a2290612f49565b60405180910390fd5b3373ffffffffffffffffffffffffffffffffffffffff167faf01bfc8475df280aca00b578c4a948e6d95700f0db8c13365240f7f973c875489611a6d33610805565b604051611a7b92919061314d565b60405180910390a23373ffffffffffffffffffffffffffffffffffffffff167f896e034966eaaf1adc54acc0f257056febbd300c9e47182cf761982cf1f5e43082604051611ac99190613109565b60405180910390a260006007541480611ae957506000611ae7610ada565b115b611b28576040517f08c379a0000000000000000000000000000000000000000000000000000000008152600401611b1f90613029565b60405180910390fd5b809650505050505050919050565b60008111611b79576040517f08c379a0000000000000000000000000000000000000000000000000000000008152600401611b7090613069565b60405180910390fd5b600073ffffffffffffffffffffffffffffffffffffffff168273ffffffffffffffffffffffffffffffffffffffff161415611be9576040517f08c379a0000000000000000000000000000000000000000000000000000000008152600401611be090612fa9565b60405180910390fd5b60006007541480611c0157506000611bff610ada565b115b611c40576040517f08c379a0000000000000000000000000000000000000000000000000000000008152600401611c37906130a9565b60405180910390fd5b60008060075411611c6557611c60600b548361204490919063ffffffff16565b611c94565b611c93611c70610ada565b611c858460075461204490919063ffffffff16565b61210990919063ffffffff16565b5b905060008111611cd9576040517f08c379a0000000000000000000000000000000000000000000000000000000008152600401611cd090613009565b60405180910390fd5b611ce161068f565b5050505050506000600c60008573ffffffffffffffffffffffffffffffffffffffff1673ffffffffffffffffffffffffffffffffffffffff1681526020019081526020016000209050611d418282600001546120b490919063ffffffff16565b8160000181905550428160020181905550611d5a61242e565b6040518060400160405280848152602001428152509050600d60008673ffffffffffffffffffffffffffffffffffffffff1673ffffffffffffffffffffffffffffffffffffffff16815260200190815260200160002081908060018154018082558091505060019003906000526020600020906002020160009091909190915060008201518160000155602082015181600101555050611e05836007546120b490919063ffffffff16565b600781905550600160009054906101000a900473ffffffffffffffffffffffffffffffffffffffff1673ffffffffffffffffffffffffffffffffffffffff1663fc0c546a6040518163ffffffff1660e01b815260040160206040518083038186803b158015611e7357600080fd5b505afa158015611e87573d6000803e3d6000fd5b505050506040513d601f19601f82011682018060405250611eab919081019061253f565b73ffffffffffffffffffffffffffffffffffffffff166323b872dd87600160009054906101000a900473ffffffffffffffffffffffffffffffffffffffff16876040518463ffffffff1660e01b8152600401611f0993929190612e2c565b602060405180830381600087803b158015611f2357600080fd5b505af1158015611f37573d6000803e3d6000fd5b505050506040513d601f19601f82011682018060405250611f5b9190810190612516565b611f9a576040517f08c379a0000000000000000000000000000000000000000000000000000000008152600401611f9190613049565b60405180910390fd5b8473ffffffffffffffffffffffffffffffffffffffff167fc65e53b88159e7d2c0fc12a0600072e28ae53ff73b4c1715369c30f16093514285611fdc88610805565b604051611fea92919061314d565b60405180910390a2505050505050565b600061203c83836040518060400160405280601e81526020017f736166656d6174683a207375627472616374696f6e206f766572666c6f770000815250612343565b905092915050565b60008083141561205757600090506120ae565b600082840290508284828161206857fe5b04146120a9576040517f08c379a00000000000000000000000000000000000000000000000000000000081526004016120a090612f09565b60405180910390fd5b809150505b92915050565b6000808284019050838110156120ff576040517f08c379a00000000000000000000000000000000000000000000000000000000081526004016120f690612f69565b60405180910390fd5b8091505092915050565b600061214b83836040518060400160405280601a81526020017f736166656d6174683a206469766973696f6e206279207a65726f00000000000081525061239e565b905092915050565b600033905090565b600080600e838154811061216b57fe5b906000526020600020906005020190508060000154816001015410612194576000915050612247565b6000809050816003015442106121d3576121bf82600101548360000154611ffa90919063ffffffff16565b905081600301548260020181905550612222565b612216826004015461220884600001546121fa866002015442611ffa90919063ffffffff16565b61204490919063ffffffff16565b61210990919063ffffffff16565b90504282600201819055505b6122398183600101546120b490919063ffffffff16565b826001018190555080925050505b919050565b60008061227d60085461226f86612261611052565b61204490919063ffffffff16565b61210990919063ffffffff16565b905060055483106122a35761229b81866120b490919063ffffffff16565b91505061233c565b60006002600a0a9050600061232182612313856123056122f46005546122e68c6122d86004548c611ffa90919063ffffffff16565b61204490919063ffffffff16565b61210990919063ffffffff16565b6004546120b490919063ffffffff16565b61204490919063ffffffff16565b61210990919063ffffffff16565b905061233681886120b490919063ffffffff16565b93505050505b9392505050565b600083831115829061238b576040517f08c379a00000000000000000000000000000000000000000000000000000000081526004016123829190612ea7565b60405180910390fd5b5060008385039050809150509392505050565b600080831182906123e5576040517f08c379a00000000000000000000000000000000000000000000000000000000081526004016123dc9190612ea7565b60405180910390fd5b5060008385816123f157fe5b049050809150509392505050565b6040518060a0016040528060008152602001600081526020016000815260200160008152602001600081525090565b604051806040016040528060008152602001600081525090565b60008135905061245781613399565b92915050565b60008151905061246c816133b0565b92915050565b600081519050612481816133c7565b92915050565b600081359050612496816133de565b92915050565b6000815190506124ab816133de565b92915050565b6000602082840312156124c357600080fd5b60006124d184828501612448565b91505092915050565b600080604083850312156124ed57600080fd5b60006124fb85828601612448565b925050602061250c85828601612487565b9150509250929050565b60006020828403121561252857600080fd5b60006125368482850161245d565b91505092915050565b60006020828403121561255157600080fd5b600061255f84828501612472565b91505092915050565b60006020828403121561257a57600080fd5b600061258884828501612487565b91505092915050565b6000602082840312156125a357600080fd5b60006125b18482850161249c565b91505092915050565b600080604083850312156125cd57600080fd5b60006125db85828601612487565b92505060206125ec85828601612487565b9150509250929050565b6125ff816132fb565b82525050565b61260e816132a1565b82525050565b61261d8161330d565b82525050565b600061262e82613274565b6126388185613290565b9350612648818560208601613355565b61265181613388565b840191505092915050565b6000612669602d83613290565b91507f546f6b656e4765797365723a207472616e7366657220696e746f206c6f636b6560008301527f6420706f6f6c206661696c6564000000000000000000000000000000000000006020830152604082019050919050565b60006126cf603083613290565b91507f546f6b656e4765797365723a20556e61626c6520746f20756e7374616b65206160008301527f6d6f756e74207468697320736d616c6c000000000000000000000000000000006020830152604082019050919050565b6000612735602183613290565b91507f736166656d6174683a206d756c7469706c69636174696f6e206f766572666c6f60008301527f77000000000000000000000000000000000000000000000000000000000000006020830152604082019050919050565b600061279b602683613290565b91507f4f776e61626c653a206e6577206f776e657220697320746865207a65726f206160008301527f64647265737300000000000000000000000000000000000000000000000000006020830152604082019050919050565b6000612801603183613290565b91507f546f6b656e4765797365723a207472616e73666572206f7574206f6620756e6c60008301527f6f636b656420706f6f6c206661696c65640000000000000000000000000000006020830152604082019050919050565b6000612867601b83613290565b91507f736166656d6174683a206164646974696f6e206f766572666c6f7700000000006000830152602082019050919050565b60006128a7603d83613290565b91507f546f6b656e4765797365723a20756e7374616b6520616d6f756e74206973206760008301527f726561746572207468616e20746f74616c2075736572207374616b65730000006020830152604082019050919050565b600061290d602883613290565b91507f546f6b656e4765797365723a2062656e6566696369617279206973207a65726f60008301527f20616464726573730000000000000000000000000000000000000000000000006020830152604082019050919050565b6000612973602383613290565b91507f546f6b656e4765797365723a20756e7374616b6520616d6f756e74206973207a60008301527f65726f00000000000000000000000000000000000000000000000000000000006020830152604082019050919050565b60006129d9602f83613290565b91507f546f6b656e4765797365723a207472616e73666572206f7574206f66206c6f6360008301527f6b656420706f6f6c206661696c656400000000000000000000000000000000006020830152604082019050919050565b6000612a3f602683613290565b91507f546f6b656e4765797365723a205374616b6520616d6f756e7420697320746f6f60008301527f20736d616c6c00000000000000000000000000000000000000000000000000006020830152604082019050919050565b6000612aa5604c83613290565b91507f546f6b656e4765797365723a204572726f7220756e7374616b696e672e20537460008301527f616b696e67207368617265732065786973742c20627574206e6f207374616b6960208301527f6e6720746f6b656e7320646f00000000000000000000000000000000000000006040830152606082019050919050565b6000612b31602e83613290565b91507f546f6b656e4765797365723a207472616e7366657220696e746f207374616b6960008301527f6e6720706f6f6c206661696c65640000000000000000000000000000000000006020830152604082019050919050565b6000612b97602183613290565b91507f546f6b656e4765797365723a207374616b6520616d6f756e74206973207a657260008301527f6f000000000000000000000000000000000000000000000000000000000000006020830152604082019050919050565b6000612bfd602083613290565b91507f4f776e61626c653a2063616c6c6572206973206e6f7420746865206f776e65726000830152602082019050919050565b6000612c3d604a83613290565b91507f546f6b656e4765797365723a20496e76616c69642073746174652e205374616b60008301527f696e67207368617265732065786973742c20627574206e6f207374616b696e6760208301527f20746f6b656e7320646f000000000000000000000000000000000000000000006040830152606082019050919050565b6000612cc9602d83613290565b91507f546f6b656e4765797365723a2072656163686564206d6178696d756d20756e6c60008301527f6f636b207363686564756c6573000000000000000000000000000000000000006020830152604082019050919050565b6000612d2f60008361327f565b9150600082019050919050565b6000612d49603083613290565b91507f546f6b656e4765797365723a207472616e73666572206f7574206f662073746160008301527f6b696e6720706f6f6c206661696c6564000000000000000000000000000000006020830152604082019050919050565b612dab816132f1565b82525050565b6000602082019050612dc66000830184612605565b92915050565b6000606082019050612de160008301866125f6565b612dee6020830185612605565b612dfb6040830184612da2565b949350505050565b6000604082019050612e1860008301856125f6565b612e256020830184612da2565b9392505050565b6000606082019050612e416000830186612605565b612e4e6020830185612605565b612e5b6040830184612da2565b949350505050565b6000604082019050612e786000830185612605565b612e856020830184612da2565b9392505050565b6000602082019050612ea16000830184612614565b92915050565b60006020820190508181036000830152612ec18184612623565b905092915050565b60006020820190508181036000830152612ee28161265c565b9050919050565b60006020820190508181036000830152612f02816126c2565b9050919050565b60006020820190508181036000830152612f2281612728565b9050919050565b60006020820190508181036000830152612f428161278e565b9050919050565b60006020820190508181036000830152612f62816127f4565b9050919050565b60006020820190508181036000830152612f828161285a565b9050919050565b60006020820190508181036000830152612fa28161289a565b9050919050565b60006020820190508181036000830152612fc281612900565b9050919050565b60006020820190508181036000830152612fe281612966565b9050919050565b60006020820190508181036000830152613002816129cc565b9050919050565b6000602082019050818103600083015261302281612a32565b9050919050565b6000602082019050818103600083015261304281612a98565b9050919050565b6000602082019050818103600083015261306281612b24565b9050919050565b6000602082019050818103600083015261308281612b8a565b9050919050565b600060208201905081810360008301526130a281612bf0565b9050919050565b600060208201905081810360008301526130c281612c30565b9050919050565b600060208201905081810360008301526130e281612cbc565b9050919050565b6000602082019050818103600083015261310281612d3c565b9050919050565b600060208201905061311e6000830184612da2565b92915050565b60006040820190506131396000830185612da2565b6131466020830184612da2565b9392505050565b60006060820190506131626000830185612da2565b61316f6020830184612da2565b818103604083015261318081612d22565b90509392505050565b600060608201905061319e6000830186612da2565b6131ab6020830185612da2565b6131b86040830184612da2565b949350505050565b600060a0820190506131d56000830188612da2565b6131e26020830187612da2565b6131ef6040830186612da2565b6131fc6060830185612da2565b6132096080830184612da2565b9695505050505050565b600060c0820190506132286000830189612da2565b6132356020830188612da2565b6132426040830187612da2565b61324f6060830186612da2565b61325c6080830185612da2565b61326960a0830184612da2565b979650505050505050565b600081519050919050565b600082825260208201905092915050565b600082825260208201905092915050565b60006132ac826132d1565b9050919050565b60008115159050919050565b60006132ca826132a1565b9050919050565b600073ffffffffffffffffffffffffffffffffffffffff82169050919050565b6000819050919050565b600061330682613331565b9050919050565b60006133188261331f565b9050919050565b600061332a826132d1565b9050919050565b600061333c82613343565b9050919050565b600061334e826132d1565b9050919050565b60005b83811015613373578082015181840152602081019050613358565b83811115613382576000848401525b50505050565b6000601f19601f8301169050919050565b6133a2816132a1565b81146133ad57600080fd5b50565b6133b9816132b3565b81146133c457600080fd5b50565b6133d0816132bf565b81146133db57600080fd5b50565b6133e7816132f1565b81146133f257600080fd5b5056fea264697066735822122056a27fab4cf19e81459df83a8fd16414446f48596e91fedb5ea3988e56dcb24a64736f6c63430006000033608060405234801561001057600080fd5b50604051610c19380380610c1983398181016040526100329190810190610144565b600061004261012760201b60201c565b9050806000806101000a81548173ffffffffffffffffffffffffffffffffffffffff021916908373ffffffffffffffffffffffffffffffffffffffff1602179055508073ffffffffffffffffffffffffffffffffffffffff16600073ffffffffffffffffffffffffffffffffffffffff167f8be0079c531659141344cd1fd0a4f28419497f9722a3daafe3b4186f6b6457e060405160405180910390a35080600160006101000a81548173ffffffffffffffffffffffffffffffffffffffff021916908373ffffffffffffffffffffffffffffffffffffffff160217905550506101c8565b600033905090565b60008151905061013e816101b1565b92915050565b60006020828403121561015657600080fd5b60006101648482850161012f565b91505092915050565b600061017882610191565b9050919050565b600061018a8261016d565b9050919050565b600073ffffffffffffffffffffffffffffffffffffffff82169050919050565b6101ba8161017f565b81146101c557600080fd5b50565b610a42806101d76000396000f3fe608060405234801561001057600080fd5b50600436106100625760003560e01c8063715018a6146100675780638da5cb5b14610071578063a9059cbb1461008f578063b69ef8a8146100bf578063f2fde38b146100dd578063fc0c546a146100f9575b600080fd5b61006f610117565b005b61007961026c565b6040516100869190610875565b60405180910390f35b6100a960048036036100a49190810190610705565b610295565b6040516100b691906108b9565b60405180910390f35b6100c76103e4565b6040516100d4919061092f565b60405180910390f35b6100f760048036036100f291908101906106dc565b610496565b005b61010161065a565b60405161010e91906108d4565b60405180910390f35b61011f610680565b73ffffffffffffffffffffffffffffffffffffffff166000809054906101000a900473ffffffffffffffffffffffffffffffffffffffff1673ffffffffffffffffffffffffffffffffffffffff16146101ad576040517f08c379a00000000000000000000000000000000000000000000000000000000081526004016101a49061090f565b60405180910390fd5b600073ffffffffffffffffffffffffffffffffffffffff166000809054906101000a900473ffffffffffffffffffffffffffffffffffffffff1673ffffffffffffffffffffffffffffffffffffffff167f8be0079c531659141344cd1fd0a4f28419497f9722a3daafe3b4186f6b6457e060405160405180910390a360008060006101000a81548173ffffffffffffffffffffffffffffffffffffffff021916908373ffffffffffffffffffffffffffffffffffffffff160217905550565b60008060009054906101000a900473ffffffffffffffffffffffffffffffffffffffff16905090565b600061029f610680565b73ffffffffffffffffffffffffffffffffffffffff166000809054906101000a900473ffffffffffffffffffffffffffffffffffffffff1673ffffffffffffffffffffffffffffffffffffffff161461032d576040517f08c379a00000000000000000000000000000000000000000000000000000000081526004016103249061090f565b60405180910390fd5b600160009054906101000a900473ffffffffffffffffffffffffffffffffffffffff1673ffffffffffffffffffffffffffffffffffffffff1663a9059cbb84846040518363ffffffff1660e01b815260040161038a929190610890565b602060405180830381600087803b1580156103a457600080fd5b505af11580156103b8573d6000803e3d6000fd5b505050506040513d601f19601f820116820180604052506103dc9190810190610741565b905092915050565b6000600160009054906101000a900473ffffffffffffffffffffffffffffffffffffffff1673ffffffffffffffffffffffffffffffffffffffff166370a08231306040518263ffffffff1660e01b81526004016104419190610875565b60206040518083038186803b15801561045957600080fd5b505afa15801561046d573d6000803e3d6000fd5b505050506040513d601f19601f82011682018060405250610491919081019061076a565b905090565b61049e610680565b73ffffffffffffffffffffffffffffffffffffffff166000809054906101000a900473ffffffffffffffffffffffffffffffffffffffff1673ffffffffffffffffffffffffffffffffffffffff161461052c576040517f08c379a00000000000000000000000000000000000000000000000000000000081526004016105239061090f565b60405180910390fd5b600073ffffffffffffffffffffffffffffffffffffffff168173ffffffffffffffffffffffffffffffffffffffff16141561059c576040517f08c379a0000000000000000000000000000000000000000000000000000000008152600401610593906108ef565b60405180910390fd5b8073ffffffffffffffffffffffffffffffffffffffff166000809054906101000a900473ffffffffffffffffffffffffffffffffffffffff1673ffffffffffffffffffffffffffffffffffffffff167f8be0079c531659141344cd1fd0a4f28419497f9722a3daafe3b4186f6b6457e060405160405180910390a3806000806101000a81548173ffffffffffffffffffffffffffffffffffffffff021916908373ffffffffffffffffffffffffffffffffffffffff16021790555050565b600160009054906101000a900473ffffffffffffffffffffffffffffffffffffffff1681565b600033905090565b600081359050610697816109c7565b92915050565b6000815190506106ac816109de565b92915050565b6000813590506106c1816109f5565b92915050565b6000815190506106d6816109f5565b92915050565b6000602082840312156106ee57600080fd5b60006106fc84828501610688565b91505092915050565b6000806040838503121561071857600080fd5b600061072685828601610688565b9250506020610737858286016106b2565b9150509250929050565b60006020828403121561075357600080fd5b60006107618482850161069d565b91505092915050565b60006020828403121561077c57600080fd5b600061078a848285016106c7565b91505092915050565b61079c8161095b565b82525050565b6107ab8161096d565b82525050565b6107ba816109a3565b82525050565b60006107cd60268361094a565b91507f4f776e61626c653a206e6577206f776e657220697320746865207a65726f206160008301527f64647265737300000000000000000000000000000000000000000000000000006020830152604082019050919050565b600061083360208361094a565b91507f4f776e61626c653a2063616c6c6572206973206e6f7420746865206f776e65726000830152602082019050919050565b61086f81610999565b82525050565b600060208201905061088a6000830184610793565b92915050565b60006040820190506108a56000830185610793565b6108b26020830184610866565b9392505050565b60006020820190506108ce60008301846107a2565b92915050565b60006020820190506108e960008301846107b1565b92915050565b60006020820190508181036000830152610908816107c0565b9050919050565b6000602082019050818103600083015261092881610826565b9050919050565b60006020820190506109446000830184610866565b92915050565b600082825260208201905092915050565b600061096682610979565b9050919050565b60008115159050919050565b600073ffffffffffffffffffffffffffffffffffffffff82169050919050565b6000819050919050565b60006109ae826109b5565b9050919050565b60006109c082610979565b9050919050565b6109d08161095b565b81146109db57600080fd5b50565b6109e78161096d565b81146109f257600080fd5b50565b6109fe81610999565b8114610a0957600080fd5b5056fea264697066735822122015320bce3db06b721e66fb1c30d3153a2be15fa00e77f70aedf71c9d7cb20afc64736f6c63430006000033",
  "source": "pragma solidity ^0.6.0;\n\npragma experimental ABIEncoderV2;\n\n// /**\n//  * @dev wrappers over solidity's arithmetic operations with added overflow\n//  * checks.\n//  *\n//  * arithmetic operations in solidity wrap on overflow. this can easily result\n//  * in bugs, because programmers usually assume that an overflow raises an\n//  * error, which is the standard behavior in high level programming languages.\n//  * `safemath` restores this intuition by reverting the transaction when an\n//  * operation overflows.\n//  *\n//  * using this library instead of the unchecked operations eliminates an entire\n//  * class of bugs, so it's recommended to use it always.\n//  */\nlibrary SafeMath {\n    /**\n     * @dev returns the addition of two unsigned integers, reverting on\n     * overflow.\n     *\n     * counterpart to solidity's `+` operator.\n     *\n     * requirements:\n     *\n     * - addition cannot overflow.\n     */\n    function add(uint256 a, uint256 b) internal pure returns (uint256) {\n        uint256 c = a + b;\n        require(c >= a, \"safemath: addition overflow\");\n\n        return c;\n    }\n\n    /**\n     * @dev returns the subtraction of two unsigned integers, reverting on\n     * overflow (when the result is negative).\n     *\n     * counterpart to solidity's `-` operator.\n     *\n     * requirements:\n     *\n     * - subtraction cannot overflow.\n     */\n    function sub(uint256 a, uint256 b) internal pure returns (uint256) {\n        return sub(a, b, \"safemath: subtraction overflow\");\n    }\n\n    /**\n     * @dev returns the subtraction of two unsigned integers, reverting with custom message on\n     * overflow (when the result is negative).\n     *\n     * counterpart to solidity's `-` operator.\n     *\n     * requirements:\n     *\n     * - subtraction cannot overflow.\n     */\n    function sub(uint256 a, uint256 b, string memory errormessage) internal pure returns (uint256) {\n        require(b <= a, errormessage);\n        uint256 c = a - b;\n\n        return c;\n    }\n\n    /**\n     * @dev returns the multiplication of two unsigned integers, reverting on\n     * overflow.\n     *\n     * counterpart to solidity's `*` operator.\n     *\n     * requirements:\n     *\n     * - multiplication cannot overflow.\n     */\n    function mul(uint256 a, uint256 b) internal pure returns (uint256) {\n        // gas optimization: this is cheaper than requiring 'a' not being zero, but the\n        // benefit is lost if 'b' is also tested.\n        // see: https://github.com/openzeppelin/openzeppelin-contracts/pull/522\n        if (a == 0) {\n            return 0;\n        }\n\n        uint256 c = a * b;\n        require(c / a == b, \"safemath: multiplication overflow\");\n\n        return c;\n    }\n\n    /**\n     * @dev returns the integer division of two unsigned integers. reverts on\n     * division by zero. the result is rounded towards zero.\n     *\n     * counterpart to solidity's `/` operator. note: this function uses a\n     * `revert` opcode (which leaves remaining gas untouched) while solidity\n     * uses an invalid opcode to revert (consuming all remaining gas).\n     *\n     * requirements:\n     *\n     * - the divisor cannot be zero.\n     */\n    function div(uint256 a, uint256 b) internal pure returns (uint256) {\n        return div(a, b, \"safemath: division by zero\");\n    }\n\n    /**\n     * @dev returns the integer division of two unsigned integers. reverts with custom message on\n     * division by zero. the result is rounded towards zero.\n     *\n     * counterpart to solidity's `/` operator. note: this function uses a\n     * `revert` opcode (which leaves remaining gas untouched) while solidity\n     * uses an invalid opcode to revert (consuming all remaining gas).\n     *\n     * requirements:\n     *\n     * - the divisor cannot be zero.\n     */\n    function div(uint256 a, uint256 b, string memory errormessage) internal pure returns (uint256) {\n        require(b > 0, errormessage);\n        uint256 c = a / b;\n        // assert(a == b * c + a % b); // there is no case in which this doesn't hold\n\n        return c;\n    }\n\n    /**\n     * @dev returns the remainder of dividing two unsigned integers. (unsigned integer modulo),\n     * reverts when dividing by zero.\n     *\n     * counterpart to solidity's `%` operator. this function uses a `revert`\n     * opcode (which leaves remaining gas untouched) while solidity uses an\n     * invalid opcode to revert (consuming all remaining gas).\n     *\n     * requirements:\n     *\n     * - the divisor cannot be zero.\n     */\n    function mod(uint256 a, uint256 b) internal pure returns (uint256) {\n        return mod(a, b, \"safemath: modulo by zero\");\n    }\n\n    /**\n     * @dev returns the remainder of dividing two unsigned integers. (unsigned integer modulo),\n     * reverts with custom message when dividing by zero.\n     *\n     * counterpart to solidity's `%` operator. this function uses a `revert`\n     * opcode (which leaves remaining gas untouched) while solidity uses an\n     * invalid opcode to revert (consuming all remaining gas).\n     *\n     * requirements:\n     *\n     * - the divisor cannot be zero.\n     */\n    function mod(uint256 a, uint256 b, string memory errormessage) internal pure returns (uint256) {\n        require(b != 0, errormessage);\n        return a % b;\n    }\n}\n\n/**\n * @dev Interface of the ERC20 standard as defined in the EIP.\n */\ninterface IERC20 {\n    /**\n     * @dev Returns the amount of tokens in existence.\n     */\n    function totalSupply() external view returns (uint256);\n\n    /**\n     * @dev Returns the amount of tokens owned by `account`.\n     */\n    function balanceOf(address account) external view returns (uint256);\n\n    /**\n     * @dev Moves `amount` tokens from the caller's account to `recipient`.\n     *\n     * Returns a boolean value indicating whether the operation succeeded.\n     *\n     * Emits a {Transfer} event.\n     */\n    function transfer(address recipient, uint256 amount) external returns (bool);\n\n    /**\n     * @dev Returns the remaining number of tokens that `spender` will be\n     * allowed to spend on behalf of `owner` through {transferFrom}. This is\n     * zero by default.\n     *\n     * This value changes when {approve} or {transferFrom} are called.\n     */\n    function allowance(address owner, address spender) external view returns (uint256);\n\n    /**\n     * @dev Sets `amount` as the allowance of `spender` over the caller's tokens.\n     *\n     * Returns a boolean value indicating whether the operation succeeded.\n     *\n     * IMPORTANT: Beware that changing an allowance with this method brings the risk\n     * that someone may use both the old and the new allowance by unfortunate\n     * transaction ordering. One possible solution to mitigate this race\n     * condition is to first reduce the spender's allowance to 0 and set the\n     * desired value afterwards:\n     * https://github.com/ethereum/EIPs/issues/20#issuecomment-263524729\n     *\n     * Emits an {Approval} event.\n     */\n    function approve(address spender, uint256 amount) external returns (bool);\n\n    /**\n     * @dev Moves `amount` tokens from `sender` to `recipient` using the\n     * allowance mechanism. `amount` is then deducted from the caller's\n     * allowance.\n     *\n     * Returns a boolean value indicating whether the operation succeeded.\n     *\n     * Emits a {Transfer} event.\n     */\n    function transferFrom(address sender, address recipient, uint256 amount) external returns (bool);\n\n    /**\n     * @dev Emitted when `value` tokens are moved from one account (`from`) to\n     * another (`to`).\n     *\n     * Note that `value` may be zero.\n     */\n    event Transfer(address indexed from, address indexed to, uint256 value);\n\n    /**\n     * @dev Emitted when the allowance of a `spender` for an `owner` is set by\n     * a call to {approve}. `value` is the new allowance.\n     */\n    event Approval(address indexed owner, address indexed spender, uint256 value);\n}\n\n/*\n * @dev Provides information about the current execution context, including the\n * sender of the transaction and its data. While these are generally available\n * via msg.sender and msg.data, they should not be accessed in such a direct\n * manner, since when dealing with GSN meta-transactions the account sending and\n * paying for execution may not be the actual sender (as far as an application\n * is concerned).\n *\n * This contract is only required for intermediate, library-like contracts.\n */\nabstract contract Context {\n    function _msgSender() internal view virtual returns (address payable) {\n        return msg.sender;\n    }\n\n    function _msgData() internal view virtual returns (bytes memory) {\n        this; // silence state mutability warning without generating bytecode - see https://github.com/ethereum/solidity/issues/2691\n        return msg.data;\n    }\n}\n\n/**\n * @dev Contract module which provides a basic access control mechanism, where\n * there is an account (an owner) that can be granted exclusive access to\n * specific functions.\n *\n * By default, the owner account will be the one that deploys the contract. This\n * can later be changed with {transferOwnership}.\n *\n * This module is used through inheritance. It will make available the modifier\n * `onlyOwner`, which can be applied to your functions to restrict their use to\n * the owner.\n */\ncontract Ownable is Context {\n    address private _owner;\n\n    event OwnershipTransferred(address indexed previousOwner, address indexed newOwner);\n\n    /**\n     * @dev Initializes the contract setting the deployer as the initial owner.\n     */\n    constructor () internal {\n        address msgSender = _msgSender();\n        _owner = msgSender;\n        emit OwnershipTransferred(address(0), msgSender);\n    }\n\n    /**\n     * @dev Returns the address of the current owner.\n     */\n    function owner() public view returns (address) {\n        return _owner;\n    }\n\n    /**\n     * @dev Throws if called by any account other than the owner.\n     */\n    modifier onlyOwner() {\n        require(_owner == _msgSender(), \"Ownable: caller is not the owner\");\n        _;\n    }\n\n    /**\n     * @dev Leaves the contract without owner. It will not be possible to call\n     * `onlyOwner` functions anymore. Can only be called by the current owner.\n     *\n     * NOTE: Renouncing ownership will leave the contract without an owner,\n     * thereby removing any functionality that is only available to the owner.\n     */\n    function renounceOwnership() public virtual onlyOwner {\n        emit OwnershipTransferred(_owner, address(0));\n        _owner = address(0);\n    }\n\n    /**\n     * @dev Transfers ownership of the contract to a new account (`newOwner`).\n     * Can only be called by the current owner.\n     */\n    function transferOwnership(address newOwner) public virtual onlyOwner {\n        require(newOwner != address(0), \"Ownable: new owner is the zero address\");\n        emit OwnershipTransferred(_owner, newOwner);\n        _owner = newOwner;\n    }\n}\n\n/**\n * @title A simple holder of tokens.\n * This is a simple contract to hold tokens. It's useful in the case where a separate contract\n * needs to hold multiple distinct pools of the same token.\n */\ncontract TokenPool is Ownable {\n    IERC20 public token;\n\n    constructor(IERC20 _token) public {\n        token = _token;\n    }\n\n    function balance() public view returns (uint256) {\n        return token.balanceOf(address(this));\n    }\n\n    function transfer(address to, uint256 value) external onlyOwner returns (bool) {\n        return token.transfer(to, value);\n    }\n}\n\n/**\n * @title Token Geyser\n * @dev A smart-contract based mechanism to distribute tokens over time, inspired loosely by\n *      Compound and Uniswap.\n *\n *      Distribution tokens are added to a locked pool in the contract and become unlocked over time\n *      according to a once-configurable unlock schedule. Once unlocked, they are available to be\n *      claimed by users.\n *\n *      A user may deposit tokens to accrue ownership share over the unlocked pool. This owner share\n *      is a function of the number of tokens deposited as well as the length of time deposited.\n *      Specifically, a user's share of the currently-unlocked pool equals their \"deposit-seconds\"\n *      divided by the global \"deposit-seconds\". This aligns the new token distribution with long\n *      term supporters of the project, addressing one of the major drawbacks of simple airdrops.\n *\n *      More background and motivation available at:\n *      https://github.com/ampleforth/RFCs/blob/master/RFCs/rfc-1.md\n */\ncontract TokenGeyser is Ownable {\n    using SafeMath for uint256;\n\n    event Staked(address indexed user, uint256 amount, uint256 total, bytes data);\n    event Unstaked(address indexed user, uint256 amount, uint256 total, bytes data);\n    event TokensClaimed(address indexed user, uint256 amount);\n    event TokensLocked(uint256 amount, uint256 durationSec, uint256 total);\n    // amount: Unlocked tokens, total: Total locked tokens\n    event TokensUnlocked(uint256 amount, uint256 total);\n\n    TokenPool private _stakingPool;\n    TokenPool private _unlockedPool;\n    TokenPool private _lockedPool;\n\n    //\n    // Time-bonus params\n    //\n    uint256 public constant BONUS_DECIMALS = 2;\n    uint256 public startBonus = 0;\n    uint256 public bonusPeriodSec = 0;\n\n    //\n    // Global accounting state\n    //\n    uint256 public totalLockedShares = 0;\n    uint256 public totalStakingShares = 0;\n    uint256 private _totalStakingShareSeconds = 0;\n    uint256 private _lastAccountingTimestampSec = now;\n    uint256 private _maxUnlockSchedules = 0;\n    uint256 private _initialSharesPerToken = 0;\n\n    //\n    // User accounting state\n    //\n    // Represents a single stake for a user. A user may have multiple.\n    struct Stake {\n        uint256 stakingShares;\n        uint256 timestampSec;\n    }\n\n    // Caches aggregated values from the User->Stake[] map to save computation.\n    // If lastAccountingTimestampSec is 0, there's no entry for that user.\n    struct UserTotals {\n        uint256 stakingShares;\n        uint256 stakingShareSeconds;\n        uint256 lastAccountingTimestampSec;\n    }\n\n    // Aggregated staking values per user\n    mapping(address => UserTotals) private _userTotals;\n\n    // The collection of stakes for each user. Ordered by timestamp, earliest to latest.\n    mapping(address => Stake[]) private _userStakes;\n\n    //\n    // Locked/Unlocked Accounting state\n    //\n    struct UnlockSchedule {\n        uint256 initialLockedShares;\n        uint256 unlockedShares;\n        uint256 lastUnlockTimestampSec;\n        uint256 endAtSec;\n        uint256 durationSec;\n    }\n\n    UnlockSchedule[] public unlockSchedules;\n\n    /**\n     * @param stakingToken The token users deposit as stake.\n     * @param distributionToken The token users receive as they unstake.\n     * @param maxUnlockSchedules Max number of unlock stages, to guard against hitting gas limit.\n     * @param startBonus_ Starting time bonus, BONUS_DECIMALS fixed point.\n     *                    e.g. 25% means user gets 25% of max distribution tokens.\n     * @param bonusPeriodSec_ Length of time for bonus to increase linearly to max.\n     * @param initialSharesPerToken Number of shares to mint per staking token on first stake.\n     */\n    constructor(IERC20 stakingToken, IERC20 distributionToken, uint256 maxUnlockSchedules,\n                uint256 startBonus_, uint256 bonusPeriodSec_, uint256 initialSharesPerToken) public {\n        // The start bonus must be some fraction of the max. (i.e. <= 100%)\n        require(startBonus_ <= 10**BONUS_DECIMALS, 'TokenGeyser: start bonus too high');\n        // If no period is desired, instead set startBonus = 100%\n        // and bonusPeriod to a small value like 1sec.\n        require(bonusPeriodSec_ != 0, 'TokenGeyser: bonus period is zero');\n        require(initialSharesPerToken > 0, 'TokenGeyser: initialSharesPerToken is zero');\n\n        _stakingPool = new TokenPool(stakingToken);\n        _unlockedPool = new TokenPool(distributionToken);\n        _lockedPool = new TokenPool(distributionToken);\n        startBonus = startBonus_;\n        bonusPeriodSec = bonusPeriodSec_;\n        _maxUnlockSchedules = maxUnlockSchedules;\n        _initialSharesPerToken = initialSharesPerToken;\n    }\n\n    /**\n     * @return The token users deposit as stake.\n     */\n    function getStakingToken() public view returns (IERC20) {\n        return _stakingPool.token();\n    }\n\n    /**\n     * @return The token users receive as they unstake.\n     */\n    function getDistributionToken() public view returns (IERC20) {\n        assert(_unlockedPool.token() == _lockedPool.token());\n        return _unlockedPool.token();\n    }\n\n    /**\n     * @dev Transfers amount of deposit tokens from the user.\n     * @param amount Number of deposit tokens to stake.\n     */\n    function stake(uint256 amount) external {\n        _stakeFor(msg.sender, msg.sender, amount);\n    }\n\n    /**\n     * @dev Transfers amount of deposit tokens from the caller on behalf of user.\n     * @param user User address who gains credit for this stake operation.\n     * @param amount Number of deposit tokens to stake.\n     */\n    function stakeFor(address user, uint256 amount) external {\n        _stakeFor(msg.sender, user, amount);\n    }\n\n    /**\n     * @dev Private implementation of staking methods.\n     * @param staker User address who deposits tokens to stake.\n     * @param beneficiary User address who gains credit for this stake operation.\n     * @param amount Number of deposit tokens to stake.\n     */\n    function _stakeFor(address staker, address beneficiary, uint256 amount) private {\n        require(amount > 0, 'TokenGeyser: stake amount is zero');\n        require(beneficiary != address(0), 'TokenGeyser: beneficiary is zero address');\n        require(totalStakingShares == 0 || totalStaked() > 0,\n                'TokenGeyser: Invalid state. Staking shares exist, but no staking tokens do');\n\n        uint256 mintedStakingShares = (totalStakingShares > 0)\n            ? totalStakingShares.mul(amount).div(totalStaked())\n            : amount.mul(_initialSharesPerToken);\n        require(mintedStakingShares > 0, 'TokenGeyser: Stake amount is too small');\n\n        updateAccounting();\n\n        // 1. User Accounting\n        UserTotals storage totals = _userTotals[beneficiary];\n        totals.stakingShares = totals.stakingShares.add(mintedStakingShares);\n        totals.lastAccountingTimestampSec = now;\n\n        Stake memory newStake = Stake(mintedStakingShares, now);\n        _userStakes[beneficiary].push(newStake);\n\n        // 2. Global Accounting\n        totalStakingShares = totalStakingShares.add(mintedStakingShares);\n\n        // interactions\n        require(_stakingPool.token().transferFrom(staker, address(_stakingPool), amount),\n            'TokenGeyser: transfer into staking pool failed');\n\n        emit Staked(beneficiary, amount, totalStakedFor(beneficiary), \"\");\n    }\n\n    /**\n     * @dev Unstakes a certain amount of previously deposited tokens. User also receives their\n     * alotted number of distribution tokens.\n     * @param amount Number of deposit tokens to unstake / withdraw.\n     */\n    function unstake(uint256 amount) external {\n        _unstake(amount);\n    }\n\n    /**\n     * @param amount Number of deposit tokens to unstake / withdraw.\n     * @return The total number of distribution tokens that would be rewarded.\n     */\n    function unstakeQuery(uint256 amount) public returns (uint256) {\n        return _unstake(amount);\n    }\n\n    /**\n     * @dev Unstakes a certain amount of previously deposited tokens. User also receives their\n     * alotted number of distribution tokens.\n     * @param amount Number of deposit tokens to unstake / withdraw.\n     * @return The total number of distribution tokens rewarded.\n     */\n    function _unstake(uint256 amount) private returns (uint256) {\n        updateAccounting();\n\n        // checks\n        require(amount > 0, 'TokenGeyser: unstake amount is zero');\n        require(totalStakedFor(msg.sender) >= amount,\n            'TokenGeyser: unstake amount is greater than total user stakes');\n        uint256 stakingSharesToBurn = totalStakingShares.mul(amount).div(totalStaked());\n        require(stakingSharesToBurn > 0, 'TokenGeyser: Unable to unstake amount this small');\n\n        // 1. User Accounting\n        UserTotals storage totals = _userTotals[msg.sender];\n        Stake[] storage accountStakes = _userStakes[msg.sender];\n\n        // Redeem from most recent stake and go backwards in time.\n        uint256 stakingShareSecondsToBurn = 0;\n        uint256 sharesLeftToBurn = stakingSharesToBurn;\n        uint256 rewardAmount = 0;\n        while (sharesLeftToBurn > 0) {\n            Stake storage lastStake = accountStakes[accountStakes.length - 1];\n            uint256 stakeTimeSec = now.sub(lastStake.timestampSec);\n            uint256 newStakingShareSecondsToBurn = 0;\n            if (lastStake.stakingShares <= sharesLeftToBurn) {\n                // fully redeem a past stake\n                newStakingShareSecondsToBurn = lastStake.stakingShares.mul(stakeTimeSec);\n                rewardAmount = computeNewReward(rewardAmount, newStakingShareSecondsToBurn, stakeTimeSec);\n                stakingShareSecondsToBurn = stakingShareSecondsToBurn.add(newStakingShareSecondsToBurn);\n                sharesLeftToBurn = sharesLeftToBurn.sub(lastStake.stakingShares);\n                accountStakes.pop();\n            } else {\n                // partially redeem a past stake\n                newStakingShareSecondsToBurn = sharesLeftToBurn.mul(stakeTimeSec);\n                rewardAmount = computeNewReward(rewardAmount, newStakingShareSecondsToBurn, stakeTimeSec);\n                stakingShareSecondsToBurn = stakingShareSecondsToBurn.add(newStakingShareSecondsToBurn);\n                lastStake.stakingShares = lastStake.stakingShares.sub(sharesLeftToBurn);\n                sharesLeftToBurn = 0;\n            }\n        }\n        totals.stakingShareSeconds = totals.stakingShareSeconds.sub(stakingShareSecondsToBurn);\n        totals.stakingShares = totals.stakingShares.sub(stakingSharesToBurn);\n        // Already set in updateAccounting\n        // totals.lastAccountingTimestampSec = now;\n\n        // 2. Global Accounting\n        _totalStakingShareSeconds = _totalStakingShareSeconds.sub(stakingShareSecondsToBurn);\n        totalStakingShares = totalStakingShares.sub(stakingSharesToBurn);\n        // Already set in updateAccounting\n        // _lastAccountingTimestampSec = now;\n\n        // interactions\n        require(_stakingPool.transfer(msg.sender, amount),\n            'TokenGeyser: transfer out of staking pool failed');\n        require(_unlockedPool.transfer(msg.sender, rewardAmount),\n            'TokenGeyser: transfer out of unlocked pool failed');\n\n        emit Unstaked(msg.sender, amount, totalStakedFor(msg.sender), \"\");\n        emit TokensClaimed(msg.sender, rewardAmount);\n\n        require(totalStakingShares == 0 || totalStaked() > 0,\n                \"TokenGeyser: Error unstaking. Staking shares exist, but no staking tokens do\");\n        return rewardAmount;\n    }\n\n    /**\n     * @dev Applies an additional time-bonus to a distribution amount. This is necessary to\n     *      encourage long-term deposits instead of constant unstake/restakes.\n     *      The bonus-multiplier is the result of a linear function that starts at startBonus and\n     *      ends at 100% over bonusPeriodSec, then stays at 100% thereafter.\n     * @param currentRewardTokens The current number of distribution tokens already alotted for this\n     *                            unstake op. Any bonuses are already applied.\n     * @param stakingShareSeconds The stakingShare-seconds that are being burned for new\n     *                            distribution tokens.\n     * @param stakeTimeSec Length of time for which the tokens were staked. Needed to calculate\n     *                     the time-bonus.\n     * @return Updated amount of distribution tokens to award, with any bonus included on the\n     *         newly added tokens.\n     */\n    function computeNewReward(uint256 currentRewardTokens,\n                                uint256 stakingShareSeconds,\n                                uint256 stakeTimeSec) private view returns (uint256) {\n\n        uint256 newRewardTokens =\n            totalUnlocked()\n            .mul(stakingShareSeconds)\n            .div(_totalStakingShareSeconds);\n\n        if (stakeTimeSec >= bonusPeriodSec) {\n            return currentRewardTokens.add(newRewardTokens);\n        }\n\n        uint256 oneHundredPct = 10**BONUS_DECIMALS;\n        uint256 bonusedReward =\n            startBonus\n            .add(oneHundredPct.sub(startBonus).mul(stakeTimeSec).div(bonusPeriodSec))\n            .mul(newRewardTokens)\n            .div(oneHundredPct);\n        return currentRewardTokens.add(bonusedReward);\n    }\n\n    /**\n     * @param addr The user to look up staking information for.\n     * @return The number of staking tokens deposited for addr.\n     */\n    function totalStakedFor(address addr) public view returns (uint256) {\n        return totalStakingShares > 0 ?\n            totalStaked().mul(_userTotals[addr].stakingShares).div(totalStakingShares) : 0;\n    }\n\n    /**\n     * @return The total number of deposit tokens staked globally, by all users.\n     */\n    function totalStaked() public view returns (uint256) {\n        return _stakingPool.balance();\n    }\n\n    /**\n     * @dev Note that this application has a staking token as well as a distribution token, which\n     * may be different. This function is required by EIP-900.\n     * @return The deposit token used for staking.\n     */\n    function token() external view returns (address) {\n        return address(getStakingToken());\n    }\n\n    /**\n     * @dev A globally callable function to update the accounting state of the system.\n     *      Global state and state for the caller are updated.\n     * @return [0] balance of the locked pool\n     * @return [1] balance of the unlocked pool\n     * @return [2] caller's staking share seconds\n     * @return [3] global staking share seconds\n     * @return [4] Rewards caller has accumulated, optimistically assumes max time-bonus.\n     * @return [5] block timestamp\n     */\n    function updateAccounting() public returns (\n        uint256, uint256, uint256, uint256, uint256, uint256) {\n\n        unlockTokens();\n\n        // Global accounting\n        uint256 newStakingShareSeconds =\n            now\n            .sub(_lastAccountingTimestampSec)\n            .mul(totalStakingShares);\n        _totalStakingShareSeconds = _totalStakingShareSeconds.add(newStakingShareSeconds);\n        _lastAccountingTimestampSec = now;\n\n        // User Accounting\n        UserTotals storage totals = _userTotals[msg.sender];\n        uint256 newUserStakingShareSeconds =\n            now\n            .sub(totals.lastAccountingTimestampSec)\n            .mul(totals.stakingShares);\n        totals.stakingShareSeconds =\n            totals.stakingShareSeconds\n            .add(newUserStakingShareSeconds);\n        totals.lastAccountingTimestampSec = now;\n\n        uint256 totalUserRewards = (_totalStakingShareSeconds > 0)\n            ? totalUnlocked().mul(totals.stakingShareSeconds).div(_totalStakingShareSeconds)\n            : 0;\n\n        return (\n            totalLocked(),\n            totalUnlocked(),\n            totals.stakingShareSeconds,\n            _totalStakingShareSeconds,\n            totalUserRewards,\n            now\n        );\n    }\n\n    /**\n     * @return Total number of locked distribution tokens.\n     */\n    function totalLocked() public view returns (uint256) {\n        return _lockedPool.balance();\n    }\n\n    /**\n     * @return Total number of unlocked distribution tokens.\n     */\n    function totalUnlocked() public view returns (uint256) {\n        return _unlockedPool.balance();\n    }\n\n    /**\n     * @return Number of unlock schedules.\n     */\n    function unlockScheduleCount() public view returns (uint256) {\n        return unlockSchedules.length;\n    }\n\n    /**\n     * @dev This funcion allows the contract owner to add more locked distribution tokens, along\n     *      with the associated \"unlock schedule\". These locked tokens immediately begin unlocking\n     *      linearly over the duraction of durationSec timeframe.\n     * @param amount Number of distribution tokens to lock. These are transferred from the caller.\n     * @param durationSec Length of time to linear unlock the tokens.\n     */\n    function lockTokens(uint256 amount, uint256 durationSec) external onlyOwner {\n        require(unlockSchedules.length < _maxUnlockSchedules,\n            'TokenGeyser: reached maximum unlock schedules');\n\n        // Update lockedTokens amount before using it in computations after.\n        updateAccounting();\n\n        uint256 lockedTokens = totalLocked();\n        uint256 mintedLockedShares = (lockedTokens > 0)\n            ? totalLockedShares.mul(amount).div(lockedTokens)\n            : amount.mul(_initialSharesPerToken);\n\n        UnlockSchedule memory schedule;\n        schedule.initialLockedShares = mintedLockedShares;\n        schedule.lastUnlockTimestampSec = now;\n        schedule.endAtSec = now.add(durationSec);\n        schedule.durationSec = durationSec;\n        unlockSchedules.push(schedule);\n\n        totalLockedShares = totalLockedShares.add(mintedLockedShares);\n\n        require(_lockedPool.token().transferFrom(msg.sender, address(_lockedPool), amount),\n            'TokenGeyser: transfer into locked pool failed');\n        emit TokensLocked(amount, durationSec, totalLocked());\n    }\n\n    /**\n     * @dev Moves distribution tokens from the locked pool to the unlocked pool, according to the\n     *      previously defined unlock schedules. Publicly callable.\n     * @return Number of newly unlocked distribution tokens.\n     */\n    function unlockTokens() public returns (uint256) {\n        uint256 unlockedTokens = 0;\n        uint256 lockedTokens = totalLocked();\n\n        if (totalLockedShares == 0) {\n            unlockedTokens = lockedTokens;\n        } else {\n            uint256 unlockedShares = 0;\n            for (uint256 s = 0; s < unlockSchedules.length; s++) {\n                unlockedShares = unlockedShares.add(unlockScheduleShares(s));\n            }\n            unlockedTokens = unlockedShares.mul(lockedTokens).div(totalLockedShares);\n            totalLockedShares = totalLockedShares.sub(unlockedShares);\n        }\n\n        if (unlockedTokens > 0) {\n            require(_lockedPool.transfer(address(_unlockedPool), unlockedTokens),\n                'TokenGeyser: transfer out of locked pool failed');\n            emit TokensUnlocked(unlockedTokens, totalLocked());\n        }\n\n        return unlockedTokens;\n    }\n\n    /**\n     * @dev Returns the number of unlockable shares from a given schedule. The returned value\n     *      depends on the time since the last unlock. This function updates schedule accounting,\n     *      but does not actually transfer any tokens.\n     * @param s Index of the unlock schedule.\n     * @return The number of unlocked shares.\n     */\n    function unlockScheduleShares(uint256 s) private returns (uint256) {\n        UnlockSchedule storage schedule = unlockSchedules[s];\n\n        if(schedule.unlockedShares >= schedule.initialLockedShares) {\n            return 0;\n        }\n\n        uint256 sharesToUnlock = 0;\n        // Special case to handle any leftover dust from integer division\n        if (now >= schedule.endAtSec) {\n            sharesToUnlock = (schedule.initialLockedShares.sub(schedule.unlockedShares));\n            schedule.lastUnlockTimestampSec = schedule.endAtSec;\n        } else {\n            sharesToUnlock = now.sub(schedule.lastUnlockTimestampSec)\n                .mul(schedule.initialLockedShares)\n                .div(schedule.durationSec);\n            schedule.lastUnlockTimestampSec = now;\n        }\n\n        schedule.unlockedShares = schedule.unlockedShares.add(sharesToUnlock);\n        return sharesToUnlock;\n    }\n}\n",
  "sourcePath": "/Users/victorvelechosky/Playground/Team3D/geyser/geyser-api/contracts/Geyser.sol",
  "compiler": {
    "name": "solc",
    "version": "0.6.0+commit.26b70077.Emscripten.clang"
  },
  "schemaVersion": "3.3.0",
  "updatedAt": "2020-10-13T02:41:08.379Z",
  "devdoc": {
    "details": "A smart-contract based mechanism to distribute tokens over time, inspired loosely by     Compound and Uniswap. *      Distribution tokens are added to a locked pool in the contract and become unlocked over time     according to a once-configurable unlock schedule. Once unlocked, they are available to be     claimed by users. *      A user may deposit tokens to accrue ownership share over the unlocked pool. This owner share     is a function of the number of tokens deposited as well as the length of time deposited.     Specifically, a user's share of the currently-unlocked pool equals their \"deposit-seconds\"     divided by the global \"deposit-seconds\". This aligns the new token distribution with long     term supporters of the project, addressing one of the major drawbacks of simple airdrops. *      More background and motivation available at:     https://github.com/ampleforth/RFCs/blob/master/RFCs/rfc-1.md",
    "methods": {
      "constructor": {
        "params": {
          "bonusPeriodSec_": "Length of time for bonus to increase linearly to max.",
          "distributionToken": "The token users receive as they unstake.",
          "initialSharesPerToken": "Number of shares to mint per staking token on first stake.",
          "maxUnlockSchedules": "Max number of unlock stages, to guard against hitting gas limit.",
          "stakingToken": "The token users deposit as stake.",
          "startBonus_": "Starting time bonus, BONUS_DECIMALS fixed point.                   e.g. 25% means user gets 25% of max distribution tokens."
        }
      },
      "lockTokens(uint256,uint256)": {
        "details": "This funcion allows the contract owner to add more locked distribution tokens, along     with the associated \"unlock schedule\". These locked tokens immediately begin unlocking     linearly over the duraction of durationSec timeframe.",
        "params": {
          "amount": "Number of distribution tokens to lock. These are transferred from the caller.",
          "durationSec": "Length of time to linear unlock the tokens."
        }
      },
      "owner()": {
        "details": "Returns the address of the current owner."
      },
      "renounceOwnership()": {
        "details": "Leaves the contract without owner. It will not be possible to call `onlyOwner` functions anymore. Can only be called by the current owner.     * NOTE: Renouncing ownership will leave the contract without an owner, thereby removing any functionality that is only available to the owner."
      },
      "stake(uint256)": {
        "details": "Transfers amount of deposit tokens from the user.",
        "params": {
          "amount": "Number of deposit tokens to stake."
        }
      },
      "stakeFor(address,uint256)": {
        "details": "Transfers amount of deposit tokens from the caller on behalf of user.",
        "params": {
          "amount": "Number of deposit tokens to stake.",
          "user": "User address who gains credit for this stake operation."
        }
      },
      "token()": {
        "details": "Note that this application has a staking token as well as a distribution token, which may be different. This function is required by EIP-900.",
        "returns": {
          "_0": "The deposit token used for staking."
        }
      },
      "totalStakedFor(address)": {
        "params": {
          "addr": "The user to look up staking information for."
        },
        "returns": {
          "_0": "The number of staking tokens deposited for addr."
        }
      },
      "transferOwnership(address)": {
        "details": "Transfers ownership of the contract to a new account (`newOwner`). Can only be called by the current owner."
      },
      "unlockTokens()": {
        "details": "Moves distribution tokens from the locked pool to the unlocked pool, according to the     previously defined unlock schedules. Publicly callable.",
        "returns": {
          "_0": "Number of newly unlocked distribution tokens."
        }
      },
      "unstake(uint256)": {
        "details": "Unstakes a certain amount of previously deposited tokens. User also receives their alotted number of distribution tokens.",
        "params": {
          "amount": "Number of deposit tokens to unstake / withdraw."
        }
      },
      "unstakeQuery(uint256)": {
        "params": {
          "amount": "Number of deposit tokens to unstake / withdraw."
        },
        "returns": {
          "_0": "The total number of distribution tokens that would be rewarded."
        }
      },
      "updateAccounting()": {
        "details": "A globally callable function to update the accounting state of the system.     Global state and state for the caller are updated.",
        "returns": {
          "_0": "[0] balance of the locked pool",
          "_1": "[1] balance of the unlocked pool",
          "_2": "[2] caller's staking share seconds",
          "_3": "[3] global staking share seconds",
          "_4": "[4] Rewards caller has accumulated, optimistically assumes max time-bonus.",
          "_5": "[5] block timestamp"
        }
      }
    },
    "title": "Token Geyser"
  },
  "userdoc": {
    "methods": {}
  }
}